:100000000C945D000C9485000C9485000C94850084
:100010000C9485000C9485000C9485000C9485004C
:100020000C9485000C9485000C9485000C9485003C
:100030000C9485000C9485000C9485000C9485002C
:100040000C94E9030C9485000C94B7030C94910371
:100050000C9485000C9485000C9485000C9485000C
:100060000C9433040C948500000000002400270049
:100070002A0000000000250028002B0004040404CE
:100080000404040402020202020203030303030342
:10009000010204081020408001020408102001021F
:1000A00004081020000000080002010000030407FB
:1000B0000000000000000000E60B11241FBECFEF7F
:1000C000D8E0DEBFCDBF23E0A4E8B1E001C01D92BF
:1000D000AC33B207E1F711E0A0E0B1E0EAE5F1E20C
:1000E00002C005900D92A438B107D9F710E0CDE514
:1000F000D0E004C02197FE010E94990ECC35D107B3
:10010000C9F70E9467070C94AB100C940000CF92C3
:10011000DF92EF92FF920F931F93CF93DF936C01C7
:100120007A018B01C0E0D0E0CE15DF0589F0D8015F
:100130006D918D01D601ED91FC910190F081E02D42
:10014000C6010995892B11F47E0102C02196ECCFDE
:10015000C701DF91CF911F910F91FF90EF90DF903A
:10016000CF900895FC01538D448D252F30E0842FCE
:1001700090E0821B930B541710F0CF9608950197CF
:100180000895FC01918D828D981761F0828DDF01B9
:10019000A80FB11D5D968C91928D9F5F9F73928F7A
:1001A00090E008958FEF9FEF0895FC01918D828D6F
:1001B000981731F0828DE80FF11D858D90E008953C
:1001C0008FEF9FEF0895FC01918D228D892F90E094
:1001D000805C9F4F821B91098F73992708958DE44E
:1001E00092E00E94E30021E0892B09F420E0822FB5
:1001F0000895FC01848DDF01A80FB11DA35ABF4FE4
:100200002C91848D90E001968F739927848FA68915
:10021000B7892C93A089B1898C9180648C93938D3C
:10022000848D981306C00288F389E02D80818F7D2C
:1002300080830895EF92FF920F931F93CF93DF93E4
:10024000EC0181E0888F9B8D8C8D981305C0E88927
:10025000F989808185FD24C0F62E0B8D10E00F5F9B
:100260001F4F0F731127E02E8C8DE8120CC00FB6B4
:1002700007FCFACFE889F989808185FFF5CFCE01A7
:100280000E94F900F1CF8B8DFE01E80FF11DE35ABA
:10029000FF4FF0820B8FEA89FB898081806207C063
:1002A000EE89FF896083E889F98980818064808391
:1002B00081E090E0DF91CF911F910F91FF90EF903F
:1002C0000895CF93DF93EC01888D8823C9F0EA89E4
:1002D000FB89808185FD05C0A889B9898C9186FD3F
:1002E0000FC00FB607FCF5CF808185FFF2CFA8893C
:1002F000B9898C9185FFEDCFCE010E94F900E7CF3F
:10030000DF91CF91089580E090E0892B29F00E9441
:10031000EF0081110C94000008953FB7F89480918C
:10032000D0019091D101A091D201B091D30126B515
:10033000A89B05C02F3F19F00196A11DB11D3FBF1D
:10034000BA2FA92F982F8827820F911DA11DB11DAB
:10035000BC01CD0142E0660F771F881F991F4A95A7
:10036000D1F708958F929F92AF92BF92CF92DF9272
:10037000EF92FF926B017C010E948D014B015C01A9
:10038000C114D104E104F104F1F00E948D01DC01FB
:10039000CB0188199909AA09BB09883E9340A10598
:1003A000B10570F321E0C21AD108E108F10888EE26
:1003B000880E83E0981EA11CB11CC114D104E10475
:1003C000F10419F7DDCFFF90EF90DF90CF90BF9051
:1003D000AF909F908F90089585ED8093BC008091A1
:1003E000BC0084FDFCCF1092280208954091A60124
:1003F000262F30E0240F311D21323105DCF420910D
:1004000028022430C9F4FC0180E090E0861758F4FB
:100410003091A6012191DC01AC57BE4FA30FB11D55
:100420002C930196F3CF8091A601680F6093A601EB
:1004300080E0089581E0089582E008950895E091B4
:10044000E1018091E001E81730F4F0E0EE51FE4F59
:10045000808190E008958FEF9FEF08959091E101E2
:100460008091E001981750F4E92FF0E0EE51FE4F33
:10047000208130E09F5F9093E10102C02FEF3FEFBA
:10048000C90108958091E00190E02091E101821B73
:1004900091090895CF92DF92EF92FF920F931F93ED
:1004A000CF93DF937C01262F972F8A018091290219
:1004B000882391F0C62FD72F6E01C40ED51ECC1500
:1004C000DD0571F06991D701ED91FC910190F0810A
:1004D000E02DC7010995F3CF642F822F0E94F6010A
:1004E000C801DF91CF911F910F91FF90EF90DF90A6
:1004F000CF900895CF93DF931F92CDB7DEB7698376
:10050000209129022223D1F020914C02203240F088
:1005100021E030E0FC013383228380E090E015C0CD
:1005200080912A02E82FF0E0E55DFD4F99819083EC
:100530008F5F80932A0280934C0205C061E0CE0158
:1005400001960E94F60181E090E00F90DF91CF913B
:100550000895089580E090E008950E949610FC01AF
:10056000808191810C94340F0F931F93CF93DF936D
:10057000EC0188819981009729F02A813B81261717
:10058000370788F48B016F5F7F4F0E94CC0F009775
:1005900061F0998388831B830A832C813D81232BFF
:1005A00011F4FC01108281E001C080E0DF91CF9165
:1005B0001F910F910895EF92FF920F931F93CF9386
:1005C000DF93FB0124813581E080F180FC0104810F
:1005D0001581E114F10411F480E017C021153105F3
:1005E00099F0EC01020F131FB8010E94B402882396
:1005F00099F3288139818C819D81B701820F931FE6
:100600000E94A4101D830C8381E0DF91CF911F9184
:100610000F91FF90EF900895CF93DF93EC018881C5
:100620009981009711F00E94340F198218821D825F
:100630001C821B821A82DF91CF910895EF92FF9264
:100640000F931F93CF93DF93EC017B018A01BA01D3
:100650000E94B402811104C0CE010E940C0307C0A5
:100660001D830C83B701888199810E94A410CE015B
:10067000DF91CF911F910F91FF90EF900895FB01B3
:10068000DC0111961C921E9213961C921E921297D8
:1006900015961C921E9214978617970749F0608151
:1006A00071816115710521F0448155810C941E03FF
:1006B0000895EF92FF920F931F93CF93DF93CDB7DF
:1006C000DEB762970FB6F894DEBF0FBECDBF8C01C8
:1006D000CB01F801118210821382128215821482DA
:1006E00050E09E012F5F3F4F7901B9010E94260C17
:1006F000F70101900020E9F73197AF014E195F092A
:10070000B701C8010E941E0362960FB6F894DEBFBF
:100710000FBECDBFDF91CF911F910F91FF90EF9052
:1007200008951F920F920FB60F9211242F933F93AB
:100730004F935F936F937F938F939F93AF93BF93E9
:10074000EF93FF938DE492E00E94F900FF91EF9107
:10075000BF91AF919F918F917F916F915F914F91D9
:100760003F912F910F900FBE0F901F9018951F92E1
:100770000F920FB60F9211242F938F939F93EF93A5
:10078000FF93E0915D02F0915E028081E09163024F
:10079000F091640282FD12C09081809166028F5FA9
:1007A0008F7320916702821751F0E0916602F0E0AA
:1007B000E35BFD4F958F8093660201C08081FF91BE
:1007C000EF919F918F912F910F900FBE0F901F90DF
:1007D00018951F920F920FB60F9211242F933F93EB
:1007E0008F939F93AF93BF938091CC019091CD0154
:1007F000A091CE01B091CF013091CB0123E0230F26
:100800002D3720F40196A11DB11D05C026E8230F48
:100810000296A11DB11D2093CB018093CC01909332
:10082000CD01A093CE01B093CF018091D0019091E2
:10083000D101A091D201B091D3010196A11DB11DAA
:100840008093D0019093D101A093D201B093D301B2
:10085000BF91AF919F918F913F912F910F900FBEBC
:100860000F901F9018951F920F920FB60F921124A0
:100870002F933F934F935F936F937F938F939F93A8
:10088000AF93BF93EF93FF938091B900887F803639
:1008900009F49CC068F5883209F45BC090F480319B
:1008A00009F454C038F4882309F4F6C0883009F4F8
:1008B0004DC0F6C0883109F44CC0803209F45DC0E7
:1008C000EFC0803409F468C048F4803309F455C09F
:1008D000883309F0E5C080932602D8C0803509F43A
:1008E0004FC0883509F45DC0883409F0D9C0D6C03E
:1008F000883909F4C7C0A8F4883709F467C038F408
:10090000883609F463C0803709F460C0C9C08838EC
:1009100009F4B8C0803909F45FC0803809F0C0C05C
:100920005BC0803B09F486C038F4803A09F466C0A5
:10093000883A09F47FC0B4C0803C09F4A7C0883C61
:1009400009F4A4C0883B09F48AC0AAC080910302BC
:1009500010C09091250280912402981770F5E091C3
:10096000250281E08E0F80932502F0E0EC5FFD4FC1
:1009700080818093BB0085EC86C0809326028EC068
:10098000E091250281E08E0F809325028091BB00CB
:10099000F0E0EC5FFD4F808390912502809124026E
:1009A0006EC0E091250281E08E0F80932502809138
:1009B000BB00F0E0EC5FFD4F808380912702811146
:1009C0006DC081E08093020284EA61C083E080937D
:1009D00028021092CA01CFCF8091CA01803208F05C
:1009E00051C0E091CA0181E08E0F8093CA018091CD
:1009F000BB00F0E0E655FE4F8083BDCF85EC8093D1
:100A0000BC00109228028091CA01803230F4E0913B
:100A1000CA01F0E0E655FE4F10826091CA0170E015
:100A2000E091A801F091A9018AEA91E0099510925C
:100A3000CA0136C084E0809328021092A701109268
:100A4000A601E091A401F091A50109958091A6016C
:100A5000811105C081E08093A60110928401E0918C
:100A6000A70181E08E0F8093A701F0E0EC57FE4FC5
:100A700080818093BB009091A7018091A601981777
:100A800008F479CF85E88093BC000AC085EC809398
:100A9000BC001092280204C0109226020E94EC01B1
:100AA000FF91EF91BF91AF919F918F917F916F9146
:100AB0005F914F913F912F910F900FBE0F901F901C
:100AC00018950F931F93CF93C82F8A0181E08093CD
:100AD0002902C0934B0210922A0210924C028AEE15
:100AE00092E00E947A0280E00E949005B8018C2F6B
:100AF00090E0CF911F910F910C940C06009769F034
:100B0000FC0101900020E9F73197AF01481B590B18
:100B1000BC018DE492E00C94870080E090E00895A1
:100B2000382F20914C0290914B02213208F049C09D
:100B3000809128028111FCCF42E04093280230933B
:100B400027023FEF309326021092250220932402C1
:100B5000ABE2B2E044E052E0FA013E2F341B321720
:100B600018F43D913193F9CF1092030220910302C2
:100B7000990F922B9093030290910202913061F4AD
:100B800010920202909103029093BB009091BC00DE
:100B900093FDF8CF95EC01C095EE9093BC00909139
:100BA00028029230E1F3909126029F3F79F08091E4
:100BB0002602803241F080912602803331F084E0B9
:100BC00005C081E003C082E001C083E010922A02E8
:100BD00010924C02109229020895CF93DF931F9236
:100BE000CDB7DEB791E09093290280934B0210922B
:100BF0002A0210924C028AEE92E049830E947A0205
:100C00004981642F8AEE92E00E947A0281E00F907F
:100C1000DF91CF910C949005909128029111FCCF17
:100C2000613208F060E291E09093280290932702ED
:100C30002FEF2093260210922502260F20932402E4
:100C40009093030290910302880F892B80930302F3
:100C500080910202813061F41092020280910302BD
:100C60008093BB008091BC0083FDF8CF85EC01C070
:100C700085EE8093BC00809128028130E1F3809161
:100C80002502861710F460912502A4E0B2E022EE5E
:100C900031E0F9018E2F821B861718F48D91819314
:100CA000F9CF1092E1016093E001862F08958F92B1
:100CB0009F92AF92BF920F931F93CF93DF93CDB7C5
:100CC000DEB7A1970FB6F894DEBF0FBECDBF19A255
:100CD000423008F44AE08E010F5D1F4F842E912CA4
:100CE000A12CB12CA50194010E94770EE62FB90129
:100CF000CA0101501109EA3014F4E05D01C0E95C59
:100D0000D801EC93232B242B252B61F7C8010E94DB
:100D10007E05A1960FB6F894DEBF0FBECDBFDF9162
:100D2000CF911F910F91BF90AF909F908F9008959A
:100D3000CF93C82F81E080932902C0934B02109279
:100D40002A0210924C028AEE92E00E947A0280E01F
:100D50000E94900561E070E08C2F90E00E940C06EC
:100D60009091E0018091E101981729F08AEE92E0DC
:100D70000E942E0201C080E0CF91089590E0FC0116
:100D8000EC55FF4F2491FC01E057FF4F3491FC01DB
:100D9000E458FF4FE491EE23B1F1222339F12330DF
:100DA00091F038F42130A9F0223001F584B58F7D1F
:100DB00012C0273091F02830A1F02430B9F480918E
:100DC00080008F7D03C0809180008F7780938000AA
:100DD0000DC084B58F7784BD09C08091B0008F7736
:100DE00003C08091B0008F7D8093B000F0E0EE0FE3
:100DF000FF1FEE58FF4FA591B4918FB7F894EC9177
:100E00003E2B3C938FBF08950F931F93CF93DF9397
:100E1000EC010C811D810F5F1F4FB8010E94B402CD
:100E2000882369F0288139818C819D8161E871E096
:100E3000820F931F0E94A4101D830C8303C0CE0158
:100E40000E940C03CE01DF91CF911F910F91089565
:100E50001F93CF93DF9346E050E06BE388E60E9458
:100E600061058AEE92E00E942E02182F8AEE92E02F
:100E70000E942E02C6EFD2E020E030E0312F822B1C
:100E8000932B998388838AEE92E00E942E02182F7A
:100E90008AEE92E00E942E0220E030E0312F822B79
:100EA000932B9B838A838AEE92E00E942E02182F56
:100EB0008AEE92E00E942E0220E030E0312F822B59
:100EC000932B9D838C83DF91CF911F910895CF93B6
:100ED000DF93CDB7DEB763970FB6F894DEBF0FBED2
:100EE000CDBF789484B5826084BD84B5816084BDB3
:100EF00085B5826085BD85B5816085BD80916E00B8
:100F0000816080936E0010928100809181008260E8
:100F10008093810080918100816080938100809125
:100F200080008160809380008091B1008460809314
:100F3000B1008091B00081608093B00080917A0010
:100F4000846080937A0080917A00826080937A0036
:100F500080917A00816080937A0080917A00806825
:100F600080937A001092C100A2E1B1E08D919D9131
:100F70009927FC01E057FF4F2491FC01E458FF4FF3
:100F800084918823A1F090E0880F991FFC01E85913
:100F9000FF4F45915491FC01EE58FF4F859194917C
:100FA0008FB7F894FA019081292B20838FBFF1E04D
:100FB000AE31BF07D9F6E0915D02F0915E0282E0AA
:100FC0008083E0915902F0915A021082E0915B0215
:100FD000F0915C028FEC808310926502E0916102D7
:100FE000F091620286E08083E0915F02F0916002FE
:100FF000808180618083E0915F02F0916002808156
:1010000088608083E0915F02F09160028081806857
:101010008083E0915F02F091600280818F7D808308
:101020001092E1011092E00110922A0210924C02FB
:101030001092280281E0809327021092020282E13E
:101040000E94BE0683E10E94BE068091B9008E7F99
:101050008093B9008091B9008D7F8093B90088E4B6
:101060008093B80085E48093BC008CE08093B80046
:1010700065E788E60E949806833729F182E491E0CB
:101080000E947E0540E163E770E080E090E00E940E
:10109000570680E591E00E947E0565E788E60E949C
:1010A0009806682F70E080E090E040E10E945706CB
:1010B00080E791E00E947E0568EE73E080E090E0BA
:1010C0000E94B201DBCF40E86BE688E60E94ED05A6
:1010D00064E670E080E090E00E94B20140E06CE6DF
:1010E00088E60E94ED0542E067E388E60E94ED0590
:1010F00060E08CE00E949806883429F183E791E053
:101100000E947E0540E168E470E080E090E00E948B
:10111000570680E591E00E947E0560E08CE00E9429
:101120009806682F70E080E090E040E10E9457064A
:1011300080E791E00E947E0568EE73E080E090E039
:101140000E94B201DBCF40E06AE08CE00E94ED0536
:101150006AE070E080E090E00E94B2014FE06AE057
:101160008CE00E94ED056AE070E080E090E00E9473
:10117000B20143E050E060E18CE00E9461058AEE3C
:1011800092E00E942E0280589109BC01990F880BB1
:10119000990B0E94680C20E030E040E85BE30E947D
:1011A000A30C20E030E040E85FE30E94990D6093DB
:1011B0002C0370932D0380932E0390932F038AEEBC
:1011C00092E00E942E0280589109BC01990F880B71
:1011D000990B0E94680C20E030E040E85BE30E943D
:1011E000A30C20E030E040E85FE30E94990D60939B
:1011F00030037093310380933203909333038AEE6C
:1012000092E00E942E0280589109BC01990F880B30
:10121000990B0E94680C20E030E040E85BE30E94FC
:10122000A30C20E030E040E85FE30E94990D60935A
:10123000340370933503809336039093370340E073
:101240006AE08CE00E94ED056AE070E080E090E0EA
:101250000E94B20146E16AE08CE00E94ED056AE07E
:1012600070E080E090E00E94B2018E01085F1F4FA5
:10127000E2E18E2EE1E09E2EF4018081F2E08F0EFD
:10128000911C0E94BE068EE1881681E09806A1F7A7
:101290006CE188E60E949806877E482F48606CE1E2
:1012A00088E60E94ED056BE188E60E949806482FCB
:1012B000477E6BE188E60E94ED056AE08CE00E94C3
:1012C0009806982E40E06AE08CE00E94ED056AE006
:1012D00070E080E090E00E94B201492D46706AE023
:1012E0008CE00E94ED056AE08CE00E949806982E42
:1012F00040E06AE08CE00E94ED056AE070E080E08A
:1013000090E00E94B201492D407142606AE08CE099
:101310000E94ED050E9428070E9428076CE188E6DC
:101320000E949806887190E073E0959587957A956C
:10133000E1F78230910541F08130910541F0892B30
:1013400049F460E070E408C060E070E105C060E06E
:1013500070E202C060E078E080E090E00E94660CFD
:101360002B013C016091F6027091F702072E000CF0
:10137000880B990B0E94680CA30192010E94050E34
:101380006093FC027093FD028093FE029093FF0233
:101390006091F8027091F902072E000C880B990BEE
:1013A0000E94680CA30192010E94050E6093000345
:1013B0007093010380930203909303036091FA02F8
:1013C0007091FB02072E000C880B990B0E94680C91
:1013D000A30192010E94050E60930403709305031C
:1013E00080930603909307036AE388E60E949806B9
:1013F00080FFFACF46E050E063E488E60E94610592
:101400008AEE92E00E942E02982E8AEE92E00E94CE
:101410002E02F92CE12C8E299F29909309038093A9
:1014200008038AEE92E00E942E02982E8AEE92E045
:101430000E942E02D92CC12C8C299D2990930B033C
:1014400080930A038AEE92E00E942E02982E8AEE82
:1014500092E00E942E02B92CA12C8A299B299093FC
:101460000D0380930C031F861E86198A188A1B8A17
:101470001A8A40E050E062E771E0CE010E960E94C9
:101480001E0356E0652E51E0752E64ED862E61E058
:10149000962EF3018081F2E06F0E711C8E3008F001
:1014A0008E508770806480937C0080917A00806485
:1014B00080937A0080917A0086FDFCCF609178005D
:1014C0008091790070E0782BF401619371934F0162
:1014D0004AE0C8010E945903B801CE0101960E945A
:1014E0003F03CE0101960E940407BC01CE010E9677
:1014F0000E94DB02CE0101960E94AF02C8010E9449
:10150000AF02F2E16F16F1E07F0619F66091F60284
:101510007091F7024AE0C8010E945903B801CE0158
:1015200001960E943F03CE0101960E940407BC0170
:10153000CE010E960E94DB02CE0101960E94AF0200
:10154000C8010E94AF026091F8027091F9024AE06E
:10155000C8010E945903B801CE0101960E943F03C1
:10156000CE0101960E940407BC01CE010E960E9496
:10157000DB02CE0101960E94AF02C8010E94AF02B9
:101580006091FA027091FB024AE0C8010E9459037F
:10159000B801CE0101960E943F03CE0101960E9440
:1015A0000407BC01CE010E960E94DB02CE0101961B
:1015B0000E94AF02C8010E94AF02609108037091BF
:1015C00009034AE0C8010E945903B801CE010196FF
:1015D0000E943F03CE0101960E940407BC01CE0188
:1015E0000E960E94DB02CE0101960E94AF02C80156
:1015F0000E94AF0260910A0370910B034AE0C80198
:101600000E945903B801CE0101960E943F03CE010A
:1016100001960E940407BC01CE010E960E94DB02D7
:10162000CE0101960E94AF02C8010E94AF026091F4
:101630000C0370910D034AE0C8010E945903B801E0
:10164000CE0101960E943F03CE0101960E9404073D
:10165000BC01CE010E960E94DB02CE0101960E94D3
:10166000AF02C8010E94AF0262E08CE00E949806BF
:1016700080FFFACF47E050E063E08CE00E94610514
:10168000CE0101964C018AEE92E00E942E02F401F6
:1016900081934F01E017F107B1F78F8183FD21C0DE
:1016A0008A8190E0982F88272981822B90931B03B1
:1016B00080931A038C8190E0982F88272B81822BAE
:1016C00090931D0380931C038E8190E0982F8827B0
:1016D0002D81822B90931F0380931E0380E090E066
:1016E00002C081E090E0892B09F057C060911A0395
:1016F00070911B034AE0C8010E945903B801CE0152
:1017000001960E943F03CE0101960E940407BC018E
:10171000CE010E960E94DB02CE0101960E94AF021E
:10172000C8010E94AF0260911C0370911D034AE042
:10173000C8010E945903B801CE0101960E943F03DF
:10174000CE0101960E940407BC01CE010E960E94B4
:10175000DB02CE0101960E94AF02C8010E94AF02D7
:1017600060911E0370911F034AE0C8010E94590353
:10177000B801CE0101960E943F03CE0101960E945E
:101780000407BC01CE010E960E94DB02CE01019639
:101790000E94AF02C8010E94AF024A895B896E8530
:1017A0007F858DE492E00E94870080E791E00E94AF
:1017B0007E0564E170E080E090E00E94B201CE011D
:1017C0000E960E94AF020E94830152CDEDE4F2E03A
:1017D0001382128288EE93E0A0E0B0E084839583C8
:1017E000A683B78322E231E03183208325EC30E009
:1017F0003587248724EC30E03787268720EC30E0DB
:10180000318B208B21EC30E0338B228B22EC30E0CB
:10181000358B248B26EC30E0378B268B118E128E85
:10182000138E148EEAEEF2E0138212828483958383
:10183000A683B78384E391E091838083E6EFF2E0AF
:1018400082E4DF011D928A95E9F70895453251053A
:1018500020F4423010F00C94310CFB011082CB01CB
:101860000895BB274A3031F4992322F4BDE29095C4
:1018700081959F4F0C943D0CBB27FB015527AA2750
:10188000880F991FAA1FA41710F0A41B839550510D
:10189000B9F7A05DAA3308F0A95DA193009779F785
:1018A000B111B1931192CB010C94560CDC01FC01E7
:1018B000672F71917723E1F7329704C07C916D9384
:1018C00070836291AE17BF07C8F30895E89409C00A
:1018D00097FB3EF490958095709561957F4F8F4F63
:1018E0009F4F9923A9F0F92F96E9BB279395F69579
:1018F000879577956795B795F111F8CFFAF4BB0FF7
:1019000011F460FF1BC06F5F7F4F8F4F9F4F16C05A
:10191000882311F096E911C0772321F09EE8872FE4
:10192000762F05C0662371F096E8862F70E060E0A0
:101930002AF09A95660F771F881FDAF7880F969519
:10194000879597F908950E94B60C0C94270D0E9474
:10195000190D38F00E94200D20F0952311F00C9401
:10196000100D0C94160D11240C945B0D0E94380D73
:1019700070F3959FC1F3950F50E0551F629FF001E2
:10198000729FBB27F00DB11D639FAA27F00DB11DFB
:10199000AA1F649F6627B00DA11D661F829F222784
:1019A000B00DA11D621F739FB00DA11D621F839F0B
:1019B000A00D611D221F749F3327A00D611D231FE1
:1019C000849F600D211D822F762F6A2F11249F572F
:1019D00050409AF0F1F088234AF0EE0FFF1FBB1F32
:1019E000661F771F881F91505040A9F79E3F5105F1
:1019F00080F00C94100D0C945B0D5F3FE4F3983E67
:101A0000D4F3869577956795B795F795E7959F5F9A
:101A1000C1F7FE2B880F911D9695879597F908952C
:101A200097F99F6780E870E060E008959FEF80EC91
:101A3000089500240A941616170618060906089534
:101A400000240A9412161306140605060895092E9A
:101A50000394000C11F4882352F0BB0F40F4BF2B09
:101A600011F460FF04C06F5F7F4F8F4F9F4F089549
:101A700057FD9058440F551F59F05F3F71F047953F
:101A8000880F97FB991F61F09F3F79F08795089524
:101A9000121613061406551FF2CF4695F1DF08C043
:101AA000161617061806991FF1CF86957105610560
:101AB00008940895E894BB2766277727CB0197F908
:101AC00008952F923F924F925F926F927F928F92E2
:101AD0009F92AF92BF92CF92DF92EF92FF920F93BD
:101AE0001F93CF93DF93CDB7DEB7CA1BDB0B0FB6C7
:101AF000F894DEBF0FBECDBF09942A883988488884
:101B00005F846E847D848C849B84AA84B984C88419
:101B1000DF80EE80FD800C811B81AA81B981CE0F10
:101B2000D11D0FB6F894DEBF0FBECDBFED010895F5
:101B30005058BB27AA270E94B00D0C94270D0E9475
:101B4000190D38F00E94200D20F039F49F3F19F450
:101B500026F40C94160D0EF4E095E7FB0C94100D92
:101B6000E92F0E94380D58F3BA17620773078407EC
:101B7000950720F079F4A6F50C945A0D0EF4E09533
:101B80000B2EBA2FA02D0B01B90190010C01CA0137
:101B9000A0011124FF27591B99F0593F50F4503EE2
:101BA00068F11A16F040A22F232F342F4427585FD4
:101BB000F3CF469537952795A795F0405395C9F7EC
:101BC0007EF41F16BA0B620B730B840BBAF09150A4
:101BD000A1F0FF0FBB1F661F771F881FC2F70EC043
:101BE000BA0F621F731F841F48F487957795679516
:101BF000B795F7959E3F08F0B0CF9395880F08F002
:101C00009927EE0F9795879508950E94190E0C94C9
:101C1000270D0E94200D58F00E94190D40F029F464
:101C20005F3F29F00C94100D51110C945B0D0C9436
:101C3000160D0E94380D68F39923B1F3552391F3E3
:101C4000951B550BBB27AA2762177307840738F02B
:101C50009F5F5F4F220F331F441FAA1FA9F335D088
:101C60000E2E3AF0E0E832D091505040E695001C3C
:101C7000CAF72BD0FE2F29D0660F771F881FBB1FF6
:101C8000261737074807AB07B0E809F0BB0B802DD4
:101C9000BF01FF2793585F4F3AF09E3F510578F000
:101CA0000C94100D0C945B0D5F3FE4F3983ED4F35D
:101CB000869577956795B795F7959F5FC9F7880FD4
:101CC000911D9695879597F90895E1E0660F771F26
:101CD000881FBB1F621773078407BA0720F0621BB7
:101CE000730B840BBA0BEE1F88F7E0950895A1E201
:101CF0001A2EAA1BBB1BFD010DC0AA1FBB1FEE1F86
:101D0000FF1FA217B307E407F50720F0A21BB30BD0
:101D1000E40BF50B661F771F881F991F1A9469F74C
:101D200060957095809590959B01AC01BD01CF01A8
:101D30000895EE0FFF1F0590F491E02D0994CF93C5
:101D4000DF938230910510F482E090E0E0913A0355
:101D5000F0913B0320E030E0C0E0D0E0309711F19B
:101D60004081518148175907C0F04817590761F45D
:101D700082819381209719F09B838A832BC0909353
:101D80003B0380933A0326C02115310519F0421711
:101D9000530718F49A01BE01DF01EF010280F381BD
:101DA000E02DDCCF2115310509F1281B390B24303A
:101DB000310590F412968D919C91139761157105E0
:101DC00021F0FB019383828304C090933B038093B3
:101DD0003A03FD01329644C0FD01E20FF31F8193E7
:101DE0009193225031092D933C933AC020913803AE
:101DF00030913903232B41F42091020130910301EA
:101E00003093390320933803209100013091010170
:101E10002115310541F42DB73EB740910401509191
:101E20000501241B350BE0913803F0913903E217CB
:101E3000F307A0F42E1B3F0B2817390778F0AC01ED
:101E40004E5F5F4F2417350748F04E0F5F1F5093CA
:101E50003903409338038193919302C0E0E0F0E0AE
:101E6000CF01DF91CF9108950F931F93CF93DF930D
:101E7000009709F48CC0FC01329713821282009102
:101E80003A0310913B030115110581F42081318142
:101E9000820F931F20913803309139032817390797
:101EA00079F5F0933903E093380371C0D80140E02D
:101EB00050E0AE17BF0750F412962D913C91139746
:101EC000AD012115310509F1D901F3CF9D01DA01E9
:101ED0003383228360817181860F971F8217930756
:101EE00069F4EC0128813981260F371F2E5F3F4F9F
:101EF000318320838A819B8193838283452B29F4BC
:101F0000F0933B03E0933A0342C01396FC93EE93A5
:101F10001297ED01499159919E01240F351FE21747
:101F2000F30771F480819181840F951F02961196B9
:101F30009C938E938281938113969C938E93129798
:101F4000E0E0F0E0D80112968D919C9113970097F4
:101F500019F0F8018C01F6CF8D919C9198012E5FBC
:101F60003F4F820F931F2091380330913903281778
:101F7000390769F4309729F410923B0310923A0321
:101F800002C0138212821093390300933803DF9149
:101F9000CF911F910F910895A0E0B0E0E2EDFFE036
:101FA0000C94650DEC01009721F4CB010E949F0E6B
:101FB000B8C0FC01E60FF71F9C0122503109E2175F
:101FC000F30708F4ACC0D9010D911C9111970617C5
:101FD0001707B0F00530110508F49FC0C801049739
:101FE0008617970708F499C002501109061B170BB2
:101FF000019311936D937C93CF010E94340F8DC098
:102000005B01A01AB10A4C01800E911EA0913A0307
:10201000B0913B0340E050E0E12CF12C109709F423
:102020004AC0A815B905D1F56D907C901197630150
:1020300082E0C80ED11CCA14DB0480F1A3014A1946
:102040005B096A0182E0C80ED11C1296BC901297FF
:102050001396AC91B5E0CB16D10440F0B282A383C5
:1020600051834083D9016D937C930AC00E5F1F4F4B
:10207000C301800F911FF90191838083EB2DFA2F0B
:10208000E114F10431F0D7011396FC93EE9312970B
:1020900044C0F0933B03E0933A033FC08D919C9181
:1020A00011974817590708F4AC017D0112960D905D
:1020B000BC91A02DB3CF809138039091390388153E
:1020C0009905E1F446175707C8F4809100019091F3
:1020D0000101009741F48DB79EB7409104015091E2
:1020E0000501841B950BE817F907C8F4F093390331
:1020F000E0933803F901718360830FC0CB010E9424
:102100009F0E7C01009759F0A801BE010E949B1010
:10211000CE010E94340FC70104C0CE0102C080E08E
:1021200090E0CDB7DEB7EEE00C94810D81E090E059
:10213000F8940C94AB10FB01DC0102C001900D92ED
:1021400041505040D8F70895FB01DC0101900D92F9
:0A2150000020E1F70895F894FFCF96
:10215A0000003C0380000E000F0010001100140064
:10216A001500020003000400050006000700000035
:10217A0000001A018700B2006101E300C100D50026
:10218A00000000007A024A02AA021E0242022E023D
:10219A001F024D50552049442069733A2030780077
:1021AA002C206275742074686520636F727265638F
:1021BA00742073686F756C642062653A2030780009
:1021CA000D0A004D41472049442069733A2030786E
:0421DA0000200000E1
:107800000C94343C0C94513C0C94513C0C94513CE1
:107810000C94513C0C94513C0C94513C0C94513CB4
:107820000C94513C0C94513C0C94513C0C94513CA4
:107830000C94513C0C94513C0C94513C0C94513C94
:107840000C94513C0C94513C0C94513C0C94513C84
:107850000C94513C0C94513C0C94513C0C94513C74
:107860000C94513C0C94513C11241FBECFEFD8E036
:10787000DEBFCDBF11E0A0E0B1E0ECE9FFE702C060
:1078800005900D92A230B107D9F712E0A2E0B1E065
:1078900001C01D92AD30B107E1F70E942D3D0C945F
:1078A000CC3F0C94003C982F959595959595959582
:1078B000905D8F708A307CF0282F295A8091C0000B
:1078C00085FFFCCF9093C6008091C00085FFFCCF60
:1078D0002093C6000895282F205DF0CF982F809127
:1078E000C00085FFFCCF9093C6000895EF92FF92F1
:1078F0000F931F93EE24FF2487018091C00087FD22
:1079000017C00894E11CF11C011D111D81E4E8164B
:1079100082E4F8068FE0080780E0180770F3E09132
:107920000401F091050109958091C00087FFE9CF1E
:107930008091C6001F910F91FF90EF9008950E94D3
:10794000763C982F8091C00085FFFCCF9093C600B5
:1079500091362CF490330CF09053892F089597555D
:10796000892F08951F930E949F3C182F0E949F3CCF
:107970001295107F810F1F9108951F93182F882350
:1079800021F00E94763C1150E1F71F9108951F935A
:10799000182F0E94763C803249F0809103018F5F5E
:1079A000809303018530C1F01F9108958091C0003C
:1079B00085FFFCCF84E18093C6008091C00085FFE5
:1079C000FCCF1093C6008091C00085FFFCCF80E102
:1079D0008093C6001F910895E0910401F091050184
:1079E00009951F9108950E94763C803241F0809164
:1079F00003018F5F80930301853081F008958091AA
:107A0000C00085FFFCCF84E18093C6008091C00058
:107A100085FFFCCF80E18093C6000895E0910401CA
:107A2000F09105010995089540E951E08823A1F0FE
:107A30002D9A28EE33E0FA013197F1F721503040CA
:107A4000D1F72D9828EE33E0FA013197F1F7215064
:107A50003040D1F7815061F708953F924F925F9285
:107A60006F927F928F929F92AF92BF92CF92DF924E
:107A7000EF92FF920F931F93CF93DF93000080E16B
:107A80008093C4001092C50088E18093C10086E015
:107A90008093C2005098589A259A81E00E94143D24
:107AA00024E1F22E9EE1E92E85E9D82E0FE0C02ECA
:107AB00010E1B12EAA24A394B1E49B2EA6E58A2E50
:107AC000F2E57F2EE0E26E2E79E4572E63E5462E36
:107AD00050E5352E0E94763C8033B1F18133B9F107
:107AE000803409F46FC0813409F476C0823409F41B
:107AF00085C0853409F488C0803531F1823521F1A3
:107B0000813511F1853509F485C0863509F48DC0BC
:107B1000843609F496C0843709F403C1853709F423
:107B200072C1863709F466C0809103018F5F80932C
:107B30000301853079F6E0910401F0910501099582
:107B40000E94763C803351F60E94F33CC3CF0E94E2
:107B5000763C803249F78091C00085FFFCCFF092DF
:107B6000C6008091C00085FFFCCF9092C600809136
:107B7000C00085FFFCCF8092C6008091C00085FFC9
:107B8000FCCF7092C6008091C00085FFFCCF609250
:107B9000C6008091C00085FFFCCF5092C600809146
:107BA000C00085FFFCCF4092C6008091C00085FFD9
:107BB000FCCF3092C6008091C00085FFFCCFB09210
:107BC000C60088CF0E94763C863808F4BDCF0E945C
:107BD000763C0E94F33C7ECF0E94763C803809F4CC
:107BE0009CC0813809F40BC1823809F43CC1883942
:107BF00009F48FC080E00E94C73C6CCF84E10E94F2
:107C0000BD3C0E94F33C66CF85E00E94BD3C0E94D3
:107C1000F33C60CF0E94763C809306010E94763C44
:107C2000809307010E94F33C55CF0E94763C80333D
:107C300009F41DC183E00E94BD3C80E00E94C73C66
:107C400049CF0E94763C809309020E94763C809343
:107C5000080280910C028E7F80930C020E94763C79
:107C6000853409F415C18091080290910902892B8D
:107C700089F000E010E00E94763CF801E85FFE4FDA
:107C800080830F5F1F4F80910802909109020817AF
:107C9000190788F30E94763C803209F045CF809125
:107CA0000C0280FF01C16091060170910701660F0F
:107CB000771F7093070160930601A0910802B091AD
:107CC00009021097C9F0E8E0F1E09B01AD014E0F09
:107CD0005F1FF999FECF32BD21BD819180BDFA9A17
:107CE000F99A2F5F3F4FE417F50799F76A0F7B1F4B
:107CF00070930701609306018091C00085FFFCCF5F
:107D0000F092C6008091C00085FFFCCFB092C60003
:107D1000E1CE83E00E94C73CDDCE82E00E94C73CFA
:107D2000D9CE0E94763C809309020E94763C8093D3
:107D300008028091060190910701880F991F909386
:107D40000701809306010E94763C853409F4A6C0A1
:107D500080910C028E7F80930C020E94763C8032D0
:107D600009F0B8CE8091C00085FFFCCFF092C6002C
:107D7000609108027091090261157105B9F140E046
:107D800050E080910C02A82FA170B82FB27011C0E2
:107D9000BB2309F45CC0E0910601F0910701319624
:107DA000F0930701E09306014F5F5F4F46175707B7
:107DB000E8F4AA2369F3F999FECF209106013091E6
:107DC000070132BD21BDF89A90B58091C00085FFB2
:107DD000FCCF9093C6002F5F3F4F30930701209355
:107DE00006014F5F5F4F4617570718F38091C00099
:107DF00085FDE5CE8091C00085FFF8CFE0CE81E023
:107E00000E94C73C67CE0E94763C803209F08CCE3F
:107E10008091C00085FFFCCFF092C6008091C00029
:107E200085FFFCCFE092C6008091C00085FFFCCFAB
:107E3000D092C6008091C00085FFFCCFC092C600E2
:107E40008091C00085FFFCCFB092C60043CEE09188
:107E50000601F091070194918091C00085FFFCCF4D
:107E60009093C6009CCF80E10E94C73C33CE0E9415
:107E7000763C0E94763C182F0E94763C112309F430
:107E800083C0113009F484C08FE00E94C73C22CE29
:107E900080910C02816080930C02E5CE80910C02EF
:107EA000816080930C0259CF809107018823880F4D
:107EB000880B8A2180930B02809106019091070123
:107EC000880F991F90930701809306018091080203
:107ED00080FF09C080910802909109020196909359
:107EE000090280930802F894F999FECF1127E091D6
:107EF0000601F0910701C8E0D1E08091080290915D
:107F00000902103091F40091570001700130D9F34B
:107F100003E000935700E89500915700017001308D
:107F2000D9F301E100935700E89509901990009169
:107F3000570001700130D9F301E000935700E89534
:107F40001395103498F011270091570001700130FB
:107F5000D9F305E000935700E895009157000170B0
:107F60000130D9F301E100935700E895329602976A
:107F700009F0C7CF103011F00296E5CF112480919F
:107F8000C00085FFB9CEBCCE8EE10E94C73CA2CD19
:0C7F900085E90E94C73C9ECDF894FFCF0D
:027F9C00800063
:040000030000780081
:00000001FF
